:0300000002107675
:0C107600787FE4F6D8FD758118020800B0
:10100D0057726F6E6720496E7075740057726F6EF0
:0B101D00672046756E6374696F6E00FB
:10080000E4F509F50A750B2BF50CF50DF50EF50F52
:10081000751020121082120EC0020BB0120DAB1216
:10082000108D8F10121028AF101210537F29121044
:1008300053AF10120E568E0E8F0FE50F640D450E3E
:1008400060DAE50F6401450E600302090812108D9D
:100850008F08121053AF08120E568E098F0AE50A40
:10086000640D450960B612108D8F08121053AF0841
:10087000120F928F0BE50B646560A112108D8F082B
:10088000121053AF08120E568E0C8F0DE50D640D2D
:10089000450C608812108D8F08121053E508643DD6
:1008A0007055E50B24D3601B24FE603224B7602012
:1008B000244D600302081CE50A250DFFE509350CEF
:1008C0000209DFC3E50A950DFFE509950C0209DF72
:1008D000AC0CAD0DAE09AF0A120BEC020B8AE50DA4
:1008E000450C7005FFFE020B9AAC0CAD0DAE09AFC6
:1008F0000A120BFE020B8AE508B443061210280206
:100900000BB0120FC6020BB0E50F6402450E600378
:100910000209F412108D8F08121053AF08120E56F0
:100920008E098F0AE50A640D4509700302081C123E
:10093000108D8F08E50824D3601024FE601424B7BE
:10094000600C244D70167F7C800F7F5E800B7F26AD
:1009500080077F7E1210537F5E121053AF08120F74
:10096000928F0BE50B6465700302081C12108D8FCB
:1009700008121053AF08120E568E0C8F0DE50D6441
:100980000D450C700302081C12108D8F08121053B5
:10099000E508643D704DE50B24D3601C24FE6032F5
:1009A00024B76021244D600302081CE509450CFEB4
:1009B000E50A450DFF020B8AE509650CFEE50A65AF
:1009C0000DFF020B8AE509550CFEE50A550DFF02E5
:1009D0000B8AE509650CFEE50A650DF4FFEEF4FEF1
:1009E000020B8AE508B44306121028020BB0120F5E
:1009F000C6020BB0E50F6403450E6003020ABA128B
:100A0000108D8F08121053AF08120E568E098F0AE0
:100A1000E50A640D4509700302081C12108D8F0849
:100A2000E50824D3601024FE601724B7600C244D21
:100A300070167F4980067F4480027F7E12105380AB
:100A4000077F017E00120FC9AF08120F928F0BE5CE
:100A50000B6465700302081C12108D8F081210536E
:100A6000E508643D7040E50B24D3601B24FE602F35
:100A700024B76020244D600302081CE50A2401FF0E
:100A8000E43509FE020B8AE50A24FFFFE50934FF7D
:100A9000FE020B8AE50AF4FFE509F4FE020B8A7FE9
:100AA000017E00020B9AE508B44306121028020BDF
:100AB000B0E4FFFE120FC9020BB0E50F6404450E4F
:100AC0006003020BB612108D8F08121053AF08127C
:100AD0000E568E098F0AE50A640D45097003020857
:100AE0001C12108D8F08E50824D3601524FE601FAA
:100AF00024B76019244D701E7F3C1210537F3C8038
:100B0000077F3E1210537F3E121053800980007FF2
:100B1000017E00120FC9AF08120F928F0BE50B6414
:100B200065700302081C12108D8F08121053AF0855
:100B3000120E568E0C8F0DE50D640D450C700302E0
:100B4000081C12108D8F08121053E508643D705078
:100B5000E50B24D3602224FE603C24B76032244D90
:100B6000600302081CE50AAE09A80D088005C3331E
:100B7000CE33CED8F9FF8012E50AAE09A80D088061
:100B800006CEA2E713CE13D8F8FF120F0802081CF6
:100B90007F017E0080047F017E00120FC902081CC5
:100BA000E508B443051210288006E4FFFE120FC9C1
:0F0BB000120DAB02081CE4FFFE120FC902081C55
:100DAB007F957E0012102C7F611210537F721210F0
:100DBB00537F691210537F741210537F2D121053EF
:100DCB007F311210537F2C1210537F6C1210537FF4
:100DDB006F1210537F671210537F691210537F638A
:100DEB001210537F2D1210537F321210537F2C127F
:100DFB0010537F621210537F691210537F741210BD
:100E0B00537FD87E0012102C7F6F1210537F7012FD
:100E1B0010537F2D1210537F331210537F2C12104F
:100E2B00537F731210537F681210537F6912105344
:100E3B007F661210537F741210537F2D1210537F45
:0B0E4B00341210537F807E0002102C38
:0B108200E4F5807590F0F5A0F5B022B9
:040FF1007F107E27C8
:100FF500E4FDFCC3ED9FEE6480F8EC648098500737
:071005000DBD00010C80ECA1
:01100C0022C1
:10105300D2B78FA0D2B67F967E00120FF5C2B6022A
:021063000FF587
:041028007F017E00C6
:10102C00C2B78FA0D2B67F967E00120FF5C2B60261
:02103C000FF5AE
:100EC0007F987E3A120FF57F307E0012102C7F94AF
:100ED0007E11120FF57F307E0012102C7F2C7E01C8
:100EE000120FF57F301E12102C7F8A7E02120FF532
:100EF0007F387E0012102C7F0C7E0012102C1210F6
:080F0000287F067E0002102C80
:101065007F027E0012102C7FDC7E05120FF5020D2B
:01107500ABCF
:060F4F008B148A158916BF
:100F5500E4F517F518AB14AA15A91612103EC3E54A
:100F6500189FEE6480F8E517648098501DAB14AAAD
:100F750015A916851882851783120BBFFF1210530A
:0D0F85000518E51870CF051780CB02106528
:100CC800C290D291D292D293209409120FF130940B
:100CD800FD7F3722209509120FF13095FD7F3822CC
:100CE800209609120FF13096FD7F392220970912BC
:100CF8000FF13097FD7F2F22D290C291D292D293DA
:100D0800209409120FF13094FD7F342220950912A6
:100D18000FF13095FD7F3522209609120FF130969C
:100D2800FD7F3622209709120FF13097FD7F782238
:100D3800D290D291C292D293209409120FF130949A
:100D4800FD7F3122209509120FF13095FD7F322267
:100D5800209609120FF13096FD7F33222097091251
:100D68000FF13097FD7F2D22D290D291D292C2936B
:100D7800209409120FF13094FD7F43222095091227
:100D88000FF13095FD7F3022209609120FF1309631
:100D9800FD7F3D22209709120FF13097FD7F2B220E
:030DA8007F6E2239
:0A108D007F6EBF6E05120CC880F8DC
:011097002236
:100E5600EF120C340E7F300E83310E88320E8D3336
:100E66000E92340E97350E9C360EA1370EA6380E0E
:100E7600AB390EB04300000EB5E4FEFF227E007FC4
:100E860001227E007F02227E007F03227E007F04F5
:100E9600227E007F05227E007F06227E007F0722BB
:100EA6007E007F08227E007F09221210288006E439
:0A0EB600FFFE120FC97E007F0D221F
:100F92008F11E511B44305121028801FE511642B4F
:100FA200601FE511642D6019E51164786013E51185
:100FB200642F600D7F017E00120FC9120DAB7F6599
:040FC20022AF112227
:030FC600E4FFFE47
:100FC9008E128F13121028120DABE5127006E5135D
:100FD9001460030480087BFF7A10791980067BFF6F
:080FE9007A10790D120F4F225E
:040F0800AB07AA0683
:100F0C00E4F511F9C3EA6480948050107CFF7DFFF6
:100F1C00120BECAA06AB077F2D1210537C007D0A36
:100F2C00AF03AE02120BFEA907E960062430FF12D4
:100F3C001053E975F00AA4FEC3EB9EF5112430FFA3
:030F4C000210533D
:100BBF00BB010CE58229F582E5833AF583E02250EB
:100BCF0006E92582F8E622BBFE06E92582F8E22235
:0D0BDF00E58229F582E5833AF583E493224F
:100BEC00EF8DF0A4A8F0CF8CF0A428CE8DF0A42E1D
:020BFC00FE22D7
:100BFE00C2D5EC30E709B2D5E4C39DFDE49CFCEE12
:100C0E0030E715B2D5E4C39FFFE49EFE120C73C30A
:100C1E00E49DFDE49CFC8003120C7330D507C3E405
:060C2E009FFFE49EFE2280
:100C3400D083D082F8E4937012740193700DA3A34F
:100C440093F8740193F5828883E473740293686063
:060C5400EFA3A3A380DF63
:10103E00E4FFFE120C5A600C0FEF70010E09E970FE
:05104E00F20A80EF2210
:100C5A00BB010689828A83E0225002E722BBFE0298
:090C6A00E32289828A83E49322CB
:100C7300BC000BBE0029EF8DF084FFADF022E4CC65
:100C8300F875F008EF2FFFEE33FEEC33FCEE9DEC2E
:100C9300984005FCEE9DFE0FD5F0E9E4CEFD22ED74
:100CA300F8F5F0EE8420D21CFEADF075F008EF2FBE
:100CB300FFED33FD4007985006D5F0F222C398FDAF
:050CC3000FD5F0EA224C
:00000001FF
